:020000040800F2
:1000000060050020450100086B1F0008B71B0008B1
:10001000691F0008E70600089F2400080000000090
:100020000000000000000000000000000D2000089B
:10003000E9060008000000006D1F0008E12000082C
:100040005F0100085F0100085F0100085F01000810
:100050005F0100085F0100085F0100085F01000800
:100060005F0100085F0100085F0100085F010008F0
:100070005F0100085F0100085F0100085F010008E0
:100080005F0100085F0100085F0100085F010008D0
:100090005F0100085F0100085F0100085F010008C0
:1000A0005F010008352100085F0100085F010008BA
:1000B000412100085F0100084D2100085F01000890
:1000C0005F0100085F0100085F0100085F01000890
:1000D0005F0100085F0100085F0100085F01000880
:1000E0005F0100085F0100085F0100085F01000870
:1000F0005F0100085F0100085F0100085F01000860
:100100005F0100085F0100085F0100085F0100084F
:100110005F0100085F0100085F0100085921000825
:100120005F0100085F0100085F0100085F0100082F
:10013000DFF80CD000F0A4FA00480047C52D0008F5
:10014000600500200648804706480047FEE7FEE7B6
:10015000FEE7FEE7FEE7FEE7FEE7FEE7FEE7FEE777
:100160003321000831010008202A04DB203A21FA5B
:1001700002F00021704721FA02F3D040C2F12002C0
:100180009140084319467047D2B201E000F8012BB4
:10019000491EFBD270470022F6E710B513460A4607
:1001A00004461946FFF7F0FF204610BD2DE9FE4F2B
:1001B00081EA030404F0004421F0004100944FF070
:1001C000000B23F0004350EA01045ED052EA03041E
:1001D0005BD0C3F30A54C1F30A552C44A4F2F334A0
:1001E0000194A0FB0254C1F3130141F48011C3F345
:1001F000130343F4801301FB024400FB034E840A03
:10020000970A44EA815447EA8357A4FB076802959A
:100210008D0A05FB07854FEA932C04FB0C54270538
:10022000029D4FEA065847EA1637B5EB08056EEB14
:10023000070C870E920E47EA811742EA8312A7FB4A
:100240000201B6EB0B0164EB00042B0D43EA0C3307
:100250005E1844EB1C50DA465146E7FB0201C5F339
:1002600013044FEA0B3343EA14534FEA0432019C60
:1002700043EA0603A4F10C040294009CCDE900B407
:1002800000F0D8F803B0BDE8F08F00200146F9E790
:100290002DE9F04D81EA030404F0004B21F0004504
:1002A00014464FF0000A23F0004150EA050220D026
:1002B00054EA01021DD0C5F30A570246C5F31303E1
:1002C000C1F31300C1F30A5640F4801543F48013C0
:1002D000A7EB0608101BD64608F2FD3873EB0500A5
:1002E00002D308F1010801E092185B41B8F1000F58
:1002F00003DA00200146BDE8F08D00204FF48011A4
:10030000064684460EE0171B73EB050705D3121B48
:1003100063EB050306434CEA010C49084FEA300041
:1003200092185B4150EA0107EDD152EA030012D066
:1003300082EA040083EA0501084305D0101BAB41A3
:1003400006D20122002306E000224FF0004302E023
:100350006FF0010253101AEB06004CEB085110EB42
:100360000A0041EB0B01BDE8F04D00F054B80EB5AA
:1003700040F2334102910021CDE900110A460B46BB
:1003800000F058F803B000BD30B50B460146002020
:100390002022012409E021FA02F59D4205D303FA47
:1003A00002F5491B04FA02F52844151EA2F10102C8
:1003B000F1DC30BD2DE9F05F0546002092469B46FA
:1003C00088460646814640241BE02846414647466B
:1003D0002246FFF7C9FE53465A46C01A914110D330
:1003E00011461846224600F05DF92D1A67EB010808
:1003F0004F4622460120002100F054F917EB000976
:100400004E41201EA4F10104DFDC484631462A4655
:100410004346BDE8F09F10B5141E73F1000408DADE
:10042000401C41F1000192185B411A4301D120F0B8
:10043000010010BD2DE9F04D92469B4611B1B1FA75
:1004400081F202E0B0FA80F22032904600F02AF900
:1004500004460F4640EA0A0041EA0B0153465A4659
:10046000084313D0114653EA010019D0C8F14002E5
:100470005046FFF779FE05460E465046594642461D
:1004800000F010F9084305D0012004E02046394669
:10049000BDE8F08D0020054346EAE0762C43374363
:1004A0000A986305E40AA0EB08000022FD0A44EA6A
:1004B00047540A3002D500200146E9E7010510192A
:1004C0006941DDE9084500196941BDE8F04DA2E741
:1004D0002DE9FE4F804681EA0300C00F0C460090D4
:1004E00021F0004123F00045B8EB0200A94105D2FC
:1004F0004046214690461C460B46024623F00040EB
:10050000104347D0270DC7F30A00C3F30A510290E6
:10051000401A019040286BDAC3F3130040F4801BAB
:100520000098924620B10023D2EB030A63EB0B0B39
:1005300001985946C0F14002504600F0B3F8064613
:100540000D4650465946019A00F0BBF810EB0800E2
:100550006141002487EA115284EAE7731A4340D0CC
:10056000009A62B3019A012A4FEA075215DC001B78
:1005700061EB02014FF0004202EA0752CDE900426E
:10058000001C41F5801132462B46FFF753FF03B0A4
:10059000BDE8F08F40462146F9E7001B61EB020100
:1005A000001C41F5801300185B412018A2F50017CC
:1005B00047EB030140EAD570B6196D4111E06D08B3
:1005C0004FEA360645EAC0754FEA0752001B61EB59
:1005D0000201001C41F5801149084FEA3000001962
:1005E000514132462B4603B0BDE8F04FFFF713BF31
:1005F0000098012240000023D0EB020263EBE0737D
:10060000009821464FEAE074B8EB000061EB04016A
:10061000E9E783F000435BE781F0004158E7C1F36D
:100620000A52C1F3130140F2FF3341F480119A42A0
:1006300002DA00200146704740F233439A42A2F2A8
:10064000334202DC5242FFF78FBD00F02BB80000AE
:1006500030B5041E71F1000404DB4FF00044404249
:1006600064EB0101141E73F1000405DB1C464FF01E
:100670000043524263EB0403994208BF904230BDED
:10068000064C074D06E0E06840F0010394E80700DF
:1006900098471034AC42F6D3FFF74EFD242F0008E4
:1006A000442F0008202A04DB203A00FA02F100203F
:1006B00070479140C2F1200320FA03F319439040A0
:1006C0007047202A06DBCB17203A41FA02F043EAB2
:1006D000E07306E041FA02F3D040C2F120029140FB
:1006E000084319467047FEE77047000070B504469E
:1006F00000F010F90546601C02D00448007804445C
:1007000000F008F9401BA042FAD370BD2000002081
:100710002DE9F84FDFF8C891002409F1040A0AF125
:10072000040B23460F270BF1040ED1E00125A54051
:1007300006EA0502AA4276D1DFF8A8C14E68A6EB08
:100740000C0866452BD00DDC032E34D005DC36B307
:10075000012E19D0022E2FD11BE0112E16D0122EF1
:100760002AD119E0B8F5881F19D006DCB8F5803F0A
:1007700015D0B8F5801F1FD111E0B8F5001F0ED0BD
:10078000B8F5041F18D10AE0CB6815E0CB681B1D33
:1007900012E0CB6808330FE0CB680C330CE08B68B9
:1007A0002BB1012B4FF0080303D0456104E0042373
:1007B00002E0056100E00023FF2A01D8064601E0BF
:1007C00000F104064FEA840501D9A5F12005D6F809
:1007D000008007FA05FC28EA0C0803FA05F548EA48
:1007E0000508C6F800804D68ED0070D53E4DAE6935
:1007F00046F00106AE61AD6924F0030605F001057F
:1008000000953A4D06EB050CDCF80850A607360FAC
:1008100007FA06F825EA0805DFF8D480404503D139
:100820004FF0000825E052E0DFF8C880404502D1D3
:100830004FF001081DE0DFF8C080404502D14FF0C5
:10084000020816E0DFF8B480404502D14FF00308FB
:100850000FE0DFF8AC80404502D14FF0040808E01B
:10086000DFF8A080404502D14FF0050801E04FF0CD
:10087000060808FA06F848EA0508CCF808804D682A
:10088000D9F80060ED034D4601D5164300E09643CC
:100890002E604D68DAF80060AD03554601D5164369
:1008A00000E096432E604D68DBF80060ED025D4687
:1008B00001D5164300E096432E604D68DEF80060D7
:1008C000AD02754601D5164300E096432E60641CC8
:1008D0000A681646E2407FF429AFBDE8F88F0000B1
:1008E000000401400000111000100240000001400F
:1008F00000080140000C01400010014000140140BC
:1009000000180140001C01400AB101617047090450
:10091000FBE70000014880687047000020000020CD
:1009200002488168027811448160704720000020ED
:10093000074810B5016841F010010160032000F084
:1009400075F8002000F006F800F024F8002010BD33
:100950000020024070B50D4D04464FF47A7128789E
:10096000B1FBF0F00A490968B1FBF0F000F0CCFAF5
:1009700048B9102C07D200222146501E00F036F84C
:1009800000206C6070BD012070BD000020000020C0
:100990002C0000200C4808B5816941F001018161FB
:1009A000816901F001010091C16941F08051C1618B
:1009B000C06900F0805000900448416821F0E06177
:1009C00041F08071416008BD00100240000001400C
:1009D000002809DB00F01F0201219140400980003E
:1009E00000F1E020C0F8001170470000F0B40E4B99
:1009F0001B680C46C3F30223C3F10705042D00D97D
:100A00000425191D072901D2002300E0DB1E012661
:100A100006FA05F1491E214099409E40761E164077
:100A20003143F0BC01F050BD0CED00E0064900F090
:100A3000070208684FF6FF03184040EA0220034A05
:100A400010430860704700000CED00E00000FA055C
:100A50002DE9F0470F46050061D0434E306800F0A5
:100A60000700B84209D2306820F0070038433060F0
:100A7000306800F00700B84251D128683B4C81072C
:100A800012D5400703D5606840F4E06060602878C4
:100A9000000703D5606840F4605060606068A96832
:100AA00020F0F000084360602878C00728D068680C
:100AB000012810D02168022810D0890700292EDAD9
:100AC000616821F0030101436160FFF723FF804665
:100AD00041F288390DE021688903EFE78901EDE7EC
:100AE000FFF718FFA0EB0801494502D90320BDE834
:100AF000F0876068696800F00C00B0EB810FEFD1FF
:100B0000306800F00700B8420BD9306820F00700C9
:100B100038433060306800F00700B84201D001204F
:100B2000E5E72878400705D56068E96820F4E060CB
:100B3000084360602878000706D56068296920F4BA
:100B4000605040EAC100606000F018F86168084A2F
:100B5000C1F30311515CC8400649086006480068AB
:100B6000FFF7F8FE0020C2E700200240001002401C
:100B7000142F00082C0000202400002012A185B0B2
:100B80000FC98DE80F0014A0144A00680490516842
:100B9000134801F00C03042B10D0082B0ED1C1F325
:100BA0008343C9031DF803000AD5516804AAC1F3A1
:100BB0004041515C0A4A5043B0FBF1F005B0704728
:100BC00008494843FAE7000002030405060708093C
:100BD0000A0B0C0D0E0F1010010200000010024055
:100BE00000127A0000093D002DE9F84F040070D092
:100BF0002078C04DC00749D06868C0F38100012843
:100C000007D06868C0F38100022809D16868C00372
:100C100006D52868800339D560680028E7D035E01C
:100C20006068B0F5803F0BD010B1B0F5A02F11D0A7
:100C3000286820F480302860286820F4802002E0B2
:100C4000286840F480302860606890B1FFF762FE49
:100C500006460AE0286840F480202860F0E700BFDC
:100C6000FFF758FE801B642873D828688003F7D5E7
:100C70000CE0FFF74FFE064605E000BFFFF74AFE17
:100C8000801B6428F0D828688003F7D420789A4E17
:100C900080074FF001094FF0000839D5686810F05F
:100CA0000C0F07D06868C0F38100022809D168687A
:100CB000C00306D42868800714D52069012808D10C
:100CC00010E02069B0B1C6F80090FFF723FE074698
:100CD00005E00AE1FFF71EFEC01B0228C4D8286801
:100CE0008007F7D52868616920F0F80040EAC10064
:100CF00028600DE0C6F80080FFF70CFE074604E010
:100D0000FFF708FEC01B022823D828688007F7D405
:100D1000207800072CD57948A169D9B1C0F8009096
:100D2000FFF7F8FD074604E0FFF7F4FDC01B0228BB
:100D30000FD8686A8007F7D571484FF4FA510068F8
:100D4000B0FBF1F0009000BF0098411E0091FAD274
:100D50000EE080E0C0F80080FFF7DCFD074604E00D
:100D6000FFF7D8FDC01B022875D8686A8007F7D442
:100D70002078400760D5E8690027C00008D4E869FA
:100D800040F08050E861E869012700F08050009051
:100D90005C480168C90513D40168834641F4807139
:100DA0000160FFF7B7FD824606E000BFFFF7B2FD26
:100DB000A0EB0A0064284ED8DBF80000C005F5D58A
:100DC000E06801280AD008B1052813D0286A20F06D
:100DD00001002862286A20F0040002E0286A40F03E
:100DE00001002862E06841F2883B98B1FFF792FD6C
:100DF00082460BE0286A40F004002862EEE700BF5C
:100E0000FFF788FDA0EB0A0159455AD8286A8007E8
:100E1000F6D50CE0FFF77EFD824605E0FFF77AFD90
:100E2000A0EB0A0159454CD8286A8007F6D41FB1B7
:100E3000E86920F08050E861E06988B36968C1F32F
:100E40008101022944D00228C6F8608004D0FFF74F
:100E500061FD044638E034E0FFF75CFD074604E03E
:100E6000FFF758FDC01B02282BD828688001F7D453
:100E7000206AB0F5803F05D16868A16820F4003091
:100E800008436860D4E908010843696821F47411D3
:100E900008436860C6F86090FFF73CFD044606E032
:100EA00025E000BFFFF736FD001B022809D828689F
:100EB0008001F7D51BE000BFFFF72CFD001B0228C7
:100EC00002D90320BDE8F88F28688001F4D40EE031
:100ED0000128F7D06868226A00F48031914204D179
:100EE000616A00F47010884201D00120EAE7002016
:100EF000E8E7000000100240000042428004424245
:100F00002C0000200070004010B5401EB0F1807F22
:100F100001D3012010BD4FF0E02460610F21601764
:100F200001F0D2FA0020A06107202061002010BD4E
:100F30007047704710B590F83C20012A22D001225A
:100F400080F83C20CA688C6822F4407222434C68C6
:100F500022F4806222430C6822F4006222430C696E
:100F600022F4805222434C6922F400522243C96980
:100F7000002322F480420A4301684A6480F83C302E
:100F8000002010BD022010BD70B590F83C20012A51
:100F90002CD0012480F83C40022280F83D200368D8
:100FA0005A689D6822F070060A6832435A60104BF6
:100FB00002689A420ED00F4B9A420BD0B2F1804F8A
:100FC00008D00D4B9A4205D00C4B9A4202D00C4BE4
:100FD0009A4204D1496825F080031943916080F852
:100FE0003D40002180F83C10084670BD022070BDD5
:100FF000002C014000340140000400400008004083
:10100000000C004010B5040003D094F83D0010B16E
:1010100007E0012010BD002084F83C00204600F0CD
:101020001FF8022084F83D00211D206801F09AF885
:10103000012084F8460084F83E0084F83F0084F8DC
:10104000400084F8410084F8420084F8430084F8AA
:10105000440084F8450084F83D00002010BD0000E5
:1010600008B5154A0168154891420ED1816941F4CD
:10107000006181618069002200F40060009002211B
:101080001920FFF7B3FC192010E00D4A914211D14D
:10109000C16941F02001C161C069002200F0200057
:1010A000009004213720FFF7A1FC3720BDE808405D
:1010B000FFF78EBC08BD0000002C0140001002406C
:1010C0000014004090F83D10012901D00120704724
:1010D000022180F83D100168CA6842F00102CA602E
:1010E00000680E4988420ED00D4988420BD0B0F1FD
:1010F000804F08D00B49884205D00B49884202D066
:101100000A49884204D1816801F00701062903D009
:10111000016841F00101016000207047002C01408E
:10112000003401400004004000080040000C004072
:1011300070B5044690F83C00012817D0012584F8CA
:101140003C50022084F83D002068826822F077023B
:1011500022F47F4282600868502830D00DDC2028BD
:101160004DD005DC98B310283BD148E0022070BD7B
:10117000302844D0402834D139E0602828D0702865
:1011800006D0B0F5805F2CD0B0F5005F29D10AE021
:10119000CB68D1E90121206801F037F82068816827
:1011A00041F0770109E0CB68D1E90121206801F025
:1011B0002CF82068816841F48041816011E0CA68A0
:1011C0004968206801F0F6F85021206807E016E031
:1011D000CA684968206801F035F96021206801F08B
:1011E0001EF884F83D50002084F83C0070BDCA68A9
:1011F0004968206801F0DEF840212068EFE72268A6
:1012000001461046EBE72DE9F0410D46040003D0FE
:1012100094F83D0018B108E00120BDE8F0810020FD
:1012200084F83C00204600F040F8022084F83D009D
:101230002068816844F2070291438160211D206883
:1012400000F090FF226890689169166A2B68AF6978
:10125000034340F20330814341EA0721A868EF6964
:1012600008434FF6FC418843E96840EA0720014300
:1012700028692F6A000140EA0730084369686D69F0
:1012800026F0220646EA05152943936022689061FC
:1012900054F8460B0162012004F81F09E07520761E
:1012A000E0762077A0750020B7E7704770B590F81A
:1012B0003E60044690F83F5090F8423090F843204A
:1012C000022021B104290ED0012E1BD114E0012EE1
:1012D00018D1012B16D184F83E0084F84200012277
:1012E0000021206820E0012D0CD1012A0AD184F8C8
:1012F0003F0084F8430014E0012D03D1012B01D1FC
:10130000012A01D0012070BD84F83E0084F83F001E
:1013100084F8420084F8430001220021206800F094
:1013200067FF01220421206800F062FF2068016845
:1013300041F001010160002070BD000010B500689F
:101340000F4988421AD10F4C6088401C60800E48BB
:101350000068C06B0A4A80B22432E080002111602C
:10136000FFF705F80022094BFEF720FF02460B4667
:1013700000200749FEF78CFFC4E9020110BD000000
:101380000008004010000020C0000020000058406D
:10139000006AF8402DE9F041054690F83C000C4603
:1013A000012836D0012085F83C008AB3042A42D0B7
:1013B0002868082A51D0D4E90023E168066A26F497
:1013C00080560662C669076A26F4407646EA032319
:1013D0004FF6FF7606EA013123F4704319434FF4C8
:1013E000005627F4005306EA02321A43C161026232
:1013F0002868C16921F44061C1612868C169A26897
:1014000041EA0221C161002085F83C00BDE8F0817D
:1014100001E00220FAE7D4E90012E368286800F04E
:10142000DBFF2868816921F00C01816128688169EE
:10143000A26811430FE0D4E90012E368286801F0C4
:1014400013F82868816921F4406181612868816905
:10145000A26841EA02218161D5E7D4E90027267B11
:10146000016A21F480710162C169036A21F00301FC
:10147000394321F0F00731074FF4007647EA116154
:1014800023F4007306EA02221A43C161026228684B
:10149000C16921F00C01C1612868C169A2681143CA
:1014A000B0E710B5040003D094F83D0010B107E098
:1014B000012010BD002084F83C00204600F01EF8FA
:1014C000022084F83D00211D206800F04BFE012021
:1014D00084F8460084F83E0084F83F0084F8400019
:1014E00084F8410084F8420084F8430084F8440002
:1014F00084F8450084F83D00002010BD00B585B09B
:1015000000210091019102910391006815498842E0
:1015100026D11548C16941F00401C161C16901F0DA
:1015200004010491816941F020018161806969466B
:1015300000F0200004904FF4804000900B48FFF72B
:10154000E7F80B48416841F0E06141F480514160A7
:10155000002205211E20FFF749FA1E20FFF738FA66
:1015600005B000BD0008004000100240001401401A
:101570000000014010B5044651B104290DD00829DE
:1015800010D094F8410094F84520012811D10EE0C4
:1015900094F83E0094F84220F7E794F83F0094F85E
:1015A0004320F2E794F8400094F84420EDE7012A44
:1015B00001D0012010BD022051B1042911D0082909
:1015C00018D084F8410084F845000C291BD13CE078
:1015D00084F83E0084F842002068C26842F00202AB
:1015E00010E084F83F0084F843002068C26842F0AD
:1015F000040207E084F8400084F844002068C268D0
:1016000042F00802C2600122206800F0F1FD114999
:10161000206888420ED0104988420BD0B0F1804F2C
:1016200008D00E49884205D00D49884202D00D49A4
:10163000884204D1816801F00701062903D00168BE
:1016400041F001010160002010BD2068C26842F035
:101650001002D7E7002C0140003401400004004094
:1016600000080040000C004070B5044600680169A5
:101670004FF00005C943890715D4C168C9438907DC
:1016800011D4E91E0161012020772068806980075C
:10169000204602D0FFF752FE04E000F0CBF82046CF
:1016A00000F08AF9257720680169C943490717D4F2
:1016B000C168C943490713D46FF0040101610220D6
:1016C00020772068806910F4407F204602D0FFF721
:1016D00035FE04E000F0AEF8204600F06DF9257705
:1016E00020680169C943090716D4C168C9430907BD
:1016F00012D46FF008010161042020772068C069CE
:101700008007204602D0FFF719FE04E000F092F8AF
:10171000204600F051F9257720680169C943C906C0
:1017200017D4C168C943C90613D46FF01001016111
:10173000082020772068C06910F4407F204602D03E
:10174000FFF7FCFD04E000F075F8204600F034F9E6
:10175000257720680169C943C90708D1C168C94311
:10176000C90704D1891E0161204600F0EFF9206805
:101770000169C943090609D4C168C943090605D4EA
:101780006FF0800101612046FFF7D2FB20680169FC
:10179000C943490609D4C168C943490605D46FF055
:1017A00040010161204600F005FA20680169C94343
:1017B00089060BD4C168C943890607D46FF020019C
:1017C00001612046BDE87040FFF7B3BB70BD00006B
:1017D00000B585B00021009101910291039100684C
:1017E000104988421BD11048816941F04001816154
:1017F0008069694600F0400004904FF4007000904A
:101800000220019003900948FEF782FF08484168D2
:1018100021F0C00141F0E06141F0C001416005B03C
:1018200000BD0000002C01400010024000180140E3
:1018300000000140704770B5044690F83C000D462A
:1018400001280AD0012084F83C0042B1042A18D0B3
:10185000082A2AD00C2A4DD139E0022070BD206818
:1018600000F0E6FC2068816941F008018161206890
:10187000816921F004018161206881692A6911432D
:1018800011E0206800F004FD2068816941F40061E6
:1018900081612068816921F48061816120688169AA
:1018A0002A6941EA0221816124E0206800F026FDD6
:1018B0002068C16941F00801C1612068C16921F057
:1018C0000401C1612068C1692A69114311E02068DF
:1018D00000F048FD2068C16941F40061C1612068E1
:1018E000C16921F48061C1612068C1692A6941EA46
:1018F0000221C161002084F83C0070BD10B50400D5
:1019000003D094F83D0010B107E0012010BD002085
:1019100084F83C00204600F01FF8022084F83D00C7
:10192000211D206800F01EFC012084F8460084F888
:101930003E0084F83F0084F8400084F8410084F8B9
:10194000420084F8430084F8440084F8450084F899
:101950003D00002010BD000000B585B000210091C1
:101960000191029103910068B0F1804F1ED110489F
:10197000C16941F00101C161C16901F00101049136
:10198000816941F0040181618069694600F00400C9
:101990000490032000900748FEF7BAFE00220321BE
:1019A0001C20FFF723F81C20FFF712F805B000BD3C
:1019B00000100240000801407047000010B50446C6
:1019C000022249B104290ED0082913D094F841000D
:1019D000012816D0012010BD94F83E000128F9D14D
:1019E00084F83E200FE094F83F000128F2D184F8FB
:1019F0003F2008E094F840000128EBD184F8402013
:101A000001E084F841200122206800F0F1FB134935
:101A10002068134A884201D0904203D1436C43F4BA
:101A200000434364206888420DD090420BD0B0F14F
:101A3000804F08D00B49884205D00B49884202D01C
:101A40000A49884204D1816801F00701062903D0C0
:101A5000016841F001010160002010BD002C01402F
:101A6000003401400004004000080040000C004029
:101A700010B50446022249B1042912D008291CD00D
:101A800094F84100012823D0012010BD94F83E00B5
:101A90000128F9D184F83E202068C26842F0020291
:101AA00009E094F83F000128EED184F83F20206837
:101AB000C26842F00402C2600EE094F840000128BF
:101AC000E2D184F840202068C26842F00802F2E7C0
:101AD00084F841200C292AD00122206800F088FBDC
:101AE00015492068154A884201D0904203D1436CC1
:101AF00043F400434364206888420DD090420BD0E9
:101B0000B0F1804F08D00E49884205D00D49884277
:101B100002D00D49884204D1816801F007010629ED
:101B200003D0016841F001010160002010BD206870
:101B3000C26842F01002BEE7002C014000340140B0
:101B40000004004000080040000C004010B5006890
:101B5000114988421ED100F09FF80021084600F08C
:101B6000A7F80E4C2078012805D1D4E902230CA156
:101B70000F4800F095FC207838B9D4E9022080F0B5
:101B8000004307A10A4800F08BFCBDE8104008485C
:101B900000F0B2B810BD000000140040100000209A
:101BA00053706565643A20252E31662072706D0091
:101BB000500100207047FEE710B5194C17486060CF
:101BC0001848A0600F20FEF791FD61680320884748
:101BD0000520FEF78BFD6168032088470120FEF792
:101BE00085FD616832208847204681784078C900A9
:101BF00041EA8000C0B2616840F020008847616817
:101C00000820884761680120884761680620884766
:101C10006168BDE810400C20084700001120000852
:101C200000000020711F000810B5194C17486060B3
:101C30001848A0600F20FEF759FD616830208847E2
:101C40000520FEF753FD6168302088470120FEF72C
:101C50004DFD616830208847204681784078C90072
:101C600041EA8000C0B2616840F030008847616896
:101C700008208847616801208847616806208847F6
:101C80006168BDE810400C2008470000952000085E
:101C900000000020711F000810B5044C012061688D
:101CA00088476168BDE81040022008470000002016
:101CB000094A526841B1012908D0022908D00329F4
:101CC00008D1D430C0B210478030FBE7C030F9E70C
:101CD0009430F7E7704700000000002005480078C6
:101CE000022803D0032803D1FFF79EBFFFF764BF8C
:101CF000704700000000002070B50446044D02E06B
:101D0000A9688847641C20780028F9D170BD0000BC
:101D1000000000202DE9F04F85B000242E480094EB
:101D2000019402940394816941F004018161816905
:101D300001F004010491816941F0400181618169F0
:101D400001F040010491816941F0080181618169DC
:101D500001F008010491816941F0200181618069ED
:101D6000DFF8789000F020004FF420550490002216
:101D700029464846FEF7C8FDDFF864A048F2F03770
:101D8000002239465046FEF7BFFDDFF858B04FF449
:101D90004158002241465846FEF7B6FD00950226FE
:101DA00001250396CDE9015469464846FEF7B0FC8B
:101DB00000970396CDE9015469465046FEF7A8FC0A
:101DC000CDF800800396CDE9015469465846FEF7E8
:101DD0009FFC05B0BDE8F08F0010024000180140E4
:101DE000000C01400014014010B596B000240F947F
:101DF00010941194129413941C2108A81494FEF7C3
:101E0000CAF920216846FEF7C6F921481F4901603A
:101E10004721C0E9011440F2E731C0E903148021F1
:101E2000C0E90541FFF7EEF84FF480500F900FA97D
:101E30001748FFF77DF91648FFF760FD139413A9C3
:101E400013481494FFF7A0F8602008904FF4FA703C
:101E5000CDE909040B940C940D94002208A90C48B8
:101E60000E94FFF7E8FC00944FF40050CDE90440D5
:101E7000029401940394694605480794FFF75AF8C1
:101E80000348FFF7A5FC16B010BD0000002C014070
:101E90003000002010B592B024216846FEF77BF98F
:101EA000002410941C2109A81194FEF774F9164817
:101EB0004FF08041C0E900143C21C0E902410461B7
:101EC0008461FFF71BFD0120CDE90004CDE9020488
:101ED0000494CDE90540079469460B480894FFF740
:101EE00092F9109410A908481194FFF74DF860205A
:101EF00009901E20CDE90A04082209A902480D9480
:101F0000FFF799FC12B010BD7800002010B586B024
:101F100000241448059404940094019402941049F8
:101F20000394016040F2CF21C0E9011449F63F411A
:101F3000C0E903148461FFF7B4FA049404A90948C2
:101F40000594FFF721F80120CDE900400294082212
:101F5000694604480394FFF71DFA06B010BD00005F
:101F600000080040C0000020FEE7704770470000F6
:101F70002DE9F04104460120FEF7B8FB0122DFF80D
:101F80008880D50329464046FEF7BEFCAE110022EC
:101F900031464046FEF7B8FC0022F0214046FEF7ED
:101FA000B3FC24F00F0101224046FEF7ADFC0122F4
:101FB000170239464046FEF7A7FC00223946404644
:101FC000FEF7A2FC012229464046FEF79DFC0022B6
:101FD00031464046FEF798FC0022F0214046FEF7CD
:101FE00093FC2007010E01224046FEF78DFC0122E2
:101FF00039464046FEF788FC39464046BDE8F04188
:102000000022FEF781BC0000000C01407047000078
:102010002DE9F04104460120FEF768FB1C4E4FF409
:102020000245002229463046FEF76EFC0022F021D0
:102030003046FEF769FC24F00F0101223046FEF71E
:1020400063FC0122170239463046FEF75DFC002290
:1020500039463046FEF758FC002229463046FEF746
:1020600053FC0022F0213046FEF74EFC2007010E03
:1020700001223046FEF748FC012239463046FEF781
:1020800043FC39463046BDE8F0410022FEF73CBC37
:10209000000C014070B504460120FEF727FB0F4DF0
:1020A00000224FF402412846FEF72EFC00224FF496
:1020B0007F612846FEF728FC210101222846FEF711
:1020C00023FC0122140221462846FEF71DFC21466E
:1020D0002846BDE870400022FEF716BC000C014007
:1020E000FEF71EBC30B58FB028216846FEF753F8C6
:1020F00014210AA8FEF74FF801210804CDE90010C9
:102100000024029402250491CDE907504FF4E01019
:1021100009906846FEF768FD0F20CDE90A056802C0
:10212000CDE90C4002210AA80E94FEF791FC0FB0F5
:1021300030BD70470148FFF797BA0000300000201B
:102140000148FFF791BA0000780000200148FFF72E
:102150008BBA0000C00000200148FFF785BA0000DC
:1021600008010020F0B502681C4B1D4D1D4E1E4F8E
:102170001E4C4FF0804C984209D0A04207D06045D9
:1021800005D0A84203D0B04201D0B84204D122F019
:10219000700E4A6842EA0E02984209D0A04207D067
:1021A000604505D0A84203D0B04201D0B84203D167
:1021B00022F44075CA682A434D6922F080022A43FE
:1021C00002608A68C2620A688262984201D0A042B4
:1021D00001D10969016301214161F0BD002C014079
:1021E0000004004000080040000C004000340140A2
:1021F00010B501F01F030121046A99408C43046269
:10220000016A9A401143016210BD10B5846842EA28
:10221000032224F47F440A432243826010BD826873
:1022200022F070020A4342F007018160704700000B
:10223000F0B5026A22F001020262036A4268846910
:10224000124E24F073050C682C4323F002058B68B2
:102250002B430D4DA84201D0B04205D123F0080711
:10226000CB683B4323F00403A84201D0B04205D120
:102270004D6922F4407215438A692A4342608461A1
:10228000496841630362F0BD002C01400034014005
:10229000F0B5026A22F010020262026A43688469A1
:1022A0000D6824F4E64444EA05248D6822F02002F7
:1022B00042EA05120F4D104EA84201D0B04206D19D
:1022C000CF6822F0800242EA071222F04002A842C0
:1022D00001D0B04207D14D6923F4406343EA85033E
:1022E0008D6943EA850343608461496881630262C2
:1022F000F0BD0000002C014000340140F0B5026A3E
:1023000022F480720262026A4368C46922F4007295
:1023100024F073050C68124E2C438D6842EA0522A6
:102320000E4DA84201D0B04206D1CF6822F400621F
:1023300042EA072222F48062A84201D0B04207D1CB
:102340004D6923F4405343EA05138D6943EA0513AD
:102350004360C4614968C1630262F0BD002C014062
:102360000034014030B5026A22F480520262046AED
:102370004268C3690D6823F4E64343EA05238D6888
:1023800024F4005444EA0534084DA84202D0084D14
:10239000A84204D14D6922F4804242EA851242608B
:1023A000C36149680164046230BD0000002C014033
:1023B0000034014010B5036A046A24F00104046289
:1023C000846924F0F00444EA021423F00A020A4368
:1023D0008461026210BD000070B5046A24F001043B
:1023E00004628469056A124EB0420ED0114EB042AA
:1023F0000BD0B0F1804F08D00F4EB04205D00F4E39
:10240000B04202D00E4EB04203D124F00304144374
:1024100001E044F001041A0724F0F00444EA1262D7
:1024200025F00A0301F00A0119438261016270BDBF
:10243000002C01400034014000040040000800402E
:10244000000C004010B5036A23F010030362836997
:10245000046A23F4704343EA023224F0A00343EAFF
:1024600001118261016210BD30B5046A24F01004CC
:1024700004628469056A24F4407444EA022222F466
:1024800070444FF6FF7202EA03322243A02425F083
:10249000A00304EA011119438261016230BDFEE725
:1024A0000FB4084B10B504A902AA039800F0EEF887
:1024B000044602A9002000F080FC204610BC5DF814
:1024C00014FB0000BB2D00080907090E002804DBDF
:1024D00000F1E02080F80014704700F00F0000F1D8
:1024E000E02080F8141D704702E008C8121F08C1E0
:1024F000002AFAD170477047002001E001C1121F85
:10250000002AFBD1704700002DE9FF5F82B0002157
:10251000DDE90430020DDDF840B0034318D044F685
:102520001050A2F2FF3242431514119801281FD017
:10253000A5EB0B00401C5FEA000A4FF000064E4F6F
:10254000DFF83891B046504615D5CAF1000413E0C3
:10255000119801244AA3012801D16FEA0B010298C6
:10256000119AC0E90031C0E9024206B0BDE8F09F0F
:10257000CBF10000DFE704460021404A491842EB56
:102580000450CDE9001012E0E00707D032463B4688
:1025900040464946FDF70AFE8046894632463B469C
:1025A00010461946FDF702FE06460F466410002C41
:1025B000EAD1DDE90401DDE90023BAF1000F06DA12
:1025C000FDF7F4FD42464B46FDF7F0FD05E0FDF753
:1025D0005FFE42464B46FDF75BFE04460E46002278
:1025E000284BFEF735F803D84FF0FF30014607E0DF
:1025F0000022254B20463146FDF76AFFFEF70FF813
:10260000102409E0002C0ADB0A220023FDF7D2FE89
:10261000039B30321A55641E50EA0102F2D1641C49
:10262000039AC4F111031444119A012A03D0012220
:1026300008430DD10AE0084304D000204FF0110BED
:10264000119072E7A3EB0B056D1E0DE05B4504DDF9
:102650004FF0000205F1010504E003DA4FF000023B
:10266000A5F10105002AECD002981199C0E90231C8
:10267000C0E9004579E70000000014400000F03F89
:10268000300000000000F0430000E03F2DE9FF4F64
:1026900095B09B468946064600250FE2252877D14E
:1026A00000242746F84A0121059400E0044316F867
:1026B000013F203B01FA03F01042F7D130782A287D
:1026C00011D06FF02F033078A0F13002092A16D80C
:1026D000059A44F0020402EB820203EB420210442A
:1026E000761C0590EFE759F8042B0592002A03DACF
:1026F000504244F40054059044F00204761C3078B3
:102700002E2816D116F8010F44F004042A280DD003
:102710006FF02F023078A0F13003092B09D807EBB6
:10272000870302EB4303C718761CF3E759F8047BD1
:10273000761C30786C280FD006DC4C2817D068281F
:102740000DD06A2814D104E0742810D07A280FD153
:102750000DE044F400140AE044F4801401E044F471
:1027600040147278824202D104F58014761C761CE3
:10277000307866280BD013DC582877D009DC002885
:1027800075D04528F6D04628F4D047281AD19DE1C7
:1027900018E0632835D0642879D0652812D195E1F6
:1027A000702873D008DC6728F1D069286FD06E28B4
:1027B0000DD06F2806D1B5E073282CD0752875D0C0
:1027C000782874D05A46179990476D1C75E1C4F368
:1027D0000250022809D003280DD0D9F8001004288F
:1027E0000DD00D6009F1040967E1D9F80010EA176E
:1027F000C1E90052F6E7D9F800100D80F2E70D703C
:10280000F0E719F8041B8DF8001000208DF8010086
:10281000EA46012003E059F804AB4FF0FF306107AE
:102820004FF0000102D40DE008F101018846B942E1
:102830000FDA8045F8DB1AF808100029F4D108E017
:1028400008F1010188468142FADB1AF808100029D4
:10285000F6D105985B46A0EB080721463846179A43
:1028600000F094FA284400EB080507E04DE029E168
:102870000DE01AF8010B5A4617999047B8F1010874
:10288000F7D25B4621463846179A13E142E00A2206
:102890000092C4F302524FF0000A022A08D059F8FD
:1028A00004CB032A4FEAEC710AD00DE029E02AE0BC
:1028B00009F1070121F00702F2E802C1914609E09F
:1028C0000FFA8CFC4FEAEC71042A03D14FFA8CFC0E
:1028D0004FEAEC71002907DA0A460021DCF1000C0E
:1028E00061EB02012D2202E0220504D52B228DF896
:1028F0000420012203E0E20701D02022F7E79046FE
:1029000059E00A2102E010220DE010214FF0000AE8
:1029100000910BE010224FF0000A44F00404082755
:10292000009203E008224FF0000A0092C4F3025222
:10293000022A05D059F804CB0021032A08D009E067
:1029400009F1070121F00702F2E802C1914605E012
:102950001FFA8CFC042A01D10CF0FF0C4FF0000888
:10296000220728D5702806D0009B83F0100353EA75
:102970000A0305D00EE040228DF80420012208E071
:102980005CEA010206D030228DF804208DF80500A3
:1029900002229046009B83F0080353EA0A030AD1FF
:1029A0005CEA010201D1620705D530228DF80420CE
:1029B0004FF001087F1E582804D034A003900EA8C1
:1029C00002900DE036A0F9E753466046009AFDF705
:1029D000F1FC84460398825C0298401E02900270CB
:1029E0005CEA0100F0D1029806A9081A00F1200A59
:1029F000600702D524F4803400E00127574502DD4A
:102A0000A7EB0A0000E0002000EB0A010090059807
:102A10004144401A0590E00306D45B462146179ACC
:102A2000059800F0B3F90544002706E001A85A46CE
:102A3000C05D179990476D1C7F1C4745F6DBE0038E
:102A40000CD55B462146179A059800F09FF905447E
:102A500004E030205A46179990476D1C0099481E93
:102A600000900029F5DC08E0029802995A460078A7
:102A7000491C0291179990476D1CBAF10001AAF107
:102A8000010AF1DC65E10000092801003031323330
:102A9000343536373839616263646566000000009A
:102AA0003031323334353637383941424344454684
:102AB0000000000000F058F90544761C307800282A
:102AC0007FF4ECAD19B02846BDE8F08F620700D462
:102AD000062709F1070222F0070CFCE80223E14671
:102AE00003F000485FEA080C02D00FF2702C0DE0F2
:102AF0005FEA045C02D50FF2682C07E05FEAC47C51
:102B000002D00FF2602C01E0AFF2700C4FF0FF38F2
:102B100023F00043CDF850C065280CD006DC4528D2
:102B200009D046281DD047283DD13DE0662818D061
:102B300067287ED138E00021112F01DB112000E051
:102B4000781CCDE9000106A90EA8FFF7DDFCDDE940
:102B50000F010E9A03910021009207F1010A0491DE
:102B60004DE04FF000400097CDE9011006A90EA8F6
:102B7000FFF7CAFCDDE90F0203920E9B11990022B8
:102B8000DDF80CA00093049211B9791C00EB010A46
:102B9000B7EB0A0004D4C0F1FF3007F1010A04903A
:102BA000AAEB0700019044E0012F00DA0127002181
:102BB000112F01DD112000E03846CDE9000106A902
:102BC0000EA8FFF7A1FCDDE90F010E9A0391002189
:102BD00004910092BA4621070CD40399514500DABA
:102BE0008A46BAF1010F05DD009AAAF10101515C94
:102BF000302908D0B84202DA10F1040F06DA0121B8
:102C0000CDE9011015E0AAF10101E9E7002805DC92
:102C1000049901440491AAEB000102E0411C5145D2
:102C200000DD8A460499401A401C01904FF0004094
:102C30000290200704D40198504501DBCDF80480B0
:102C400000208DF84F0002980DF14F07B0F1004FB2
:102C500025D02B200E9002984FF0020800280CDAA5
:102C6000404202902D200E9007E00A210298FDF7C5
:102C70008BFB3031029007F8011DB8F10001A8F17B
:102C80000108F2DC02980028EFD1791E0E98087036
:102C9000307800F0200040F0450007F8020D12A83F
:102CA000C01B00F107081498007800B1012000EB68
:102CB0000A01019801EBE07105984144401A401E59
:102CC0000590E00306D45B462146179A059800F06C
:102CD0005DF805441498007818B15A461799904742
:102CE0006D1CE00324D55B462146179A059800F039
:102CF0004DF805441CE00498002807DBDDE90301DA
:102D0000884203DD0098405C179901E01799302054
:102D10005A469047049805F10105401C049001981B
:102D2000401E019004D12E205A46179990476D1CE1
:102D3000BAF10001AAF1010ADDDC05E017F8010B88
:102D40005A46179990476D1CB8F10001A8F1010887
:102D5000F4DC5B462146179A0598ABE62D0000008F
:102D60002B000000200000002DE9F0410446002562
:102D70001E461746880404D405E039462020B04793
:102D80006D1C641EF9D52846BDE8F0812DE9F0419F
:102D9000044600251E469046C80301D5302700E0B2
:102DA0002027880404D505E041463846B0476D1C0D
:102DB000641EF9D52846BDE8F0810A68531C0B60F3
:102DC000107070471CB5FDF7B3FDFFF78BF9FEF7E8
:102DD000A1FFFFF709F8FFF75DF8002548480095C7
:102DE00046490195016040F60F61C0E9011542F2C4
:102DF0000F718561C160FEF705F90095694640488D
:102E00000195FEF7C1F8FFF781F83E4802214FF027
:102E100001084570017080F80280FEF75FFF0A200C
:102E2000FDF764FCFEF738FF3548A91E90380268AC
:102E300011610068C16841F00101C16030480021A2
:102E4000D838FEF7BBFD2E4800219038FEF72EFA49
:102E50002B4804219038FEF729FA29480821903898
:102E6000FEF706FE4FF080441E20606224480821D1
:102E70004838FEF77FFB2248FEF724F9224E234F05
:102E8000DFF88C904FF4006A4FF4005B606A3428DE
:102E900001D934206062606A082801D2082060628B
:102EA000606A1E2811D986F80080012251463846F2
:102EB000FDF72AFD002259463846FDF725FD606AD8
:102EC0004FF6F85100EB400010E0357000225146FB
:102ED0003846FDF719FD012259463846FDF714FD25
:102EE000606AC821C0F11E0000EB400001EBC00089
:102EF00080B2B080C9F80000C8E7000000140040AC
:102F000008010020000000201000002000180140EF
:102F1000342C014000000000000000000102030406
:102F200006070809442F00080000002030000000B8
:102F3000E8240008742F000830000020300500004D
:102F4000F82400080000000000000000000000005D
:102F50000000000001000000000000000000000070
:102F60000000000001000000100000000000000050
:042F70000024F40045
:0400000508000131BD
:00000001FF
